S01500006579656169725F73656E736F72732E733337F4
S31500000000E0190020D1BA0200D1310000D53100003C
S31500000010A70A0A010001000004180FAC206A0B01B0
S3150000002000000000000000000000000000000000CA
S3150000003000000000D43C03000000000000000000A7
S315000000400000000000000000FFFFFFFFFFFFFFFFB2
S31500000050FFFFFFFF00E003000000000000000000BB
S31500000060FFFFFFFFFFFFFFFF34000000000000005E
S31500000070000000000000000000000000000000007A
S315000000800000000000000000C33A0020C33A002030
S31500000090E0190020BA6F0300B8D3020080100020D8
S311000000A0501000200000040000000000CA
S31500000100E0190020D1BA0200D1310000D53100003B
S3150000011031880000D9310000E1310000CDBA02007B
S31500000120CDBA0200CDBA0200CDBA0200CDBA0200A5
S31500000130E5310000CDBA0200CDBA0200CDBA020008
S31500000140054C0000298C02003134000058320000B2
S31500000150C9840200818C0200358C02004D8C02009D
S315000001602D8C0200AD40000099410000FD5A0000B0
S3150000017058320000583200005832000029030000AF
S315000001805832000058320000B541000058320000D5
S3150000019069800000583200005832000058320000D2
S315000001A05832000058320000583200005832000021
S315000001B0858C0200318C0200BDAF02009949000017
S315000001C0C18C02005832000031770200583200001C
S315000001D058320000583200005832000058320000F1
S30D000001E058320000CDBA0200FE
S315000001E8F8B500BFF8BC08BC9E467047F8B500BF16
S315000001F8F8BC08BC9E46704710B5054C237833B941
S31500000208044B13B10448AFF300800123237010BDDB
S315000002184825002000000000C468030008B5034B09
S315000002281BB103490348AFF3008008BD0000000076
S315000002384C250020C4680300A3F5803A704700BF28
S31500000248174B002B08BF134B9D46FFF7F5FF002100
S315000002588B460F461348144A121A2CF0EDFB0E4B28
S31500000268002B00D098470D4B002B00D09847002054
S31500000278002104000D000D48002802D00C48AFF3F9
S3150000028800802CF07DFB200029000AF053F92CF0A1
S3150000029863FB00BF0000080000000000000000002B
S315000002A8E0190020CE200020C33A002000000000FC
S315000002B80000000006289ABF014B185CFF20704713
S315000002C8BFD3020006289ABF014B185CFF2070476F
S315000002D8B8D3020070B5104D05EB81040246A67826
S315000002E83009FFF7E7FF107106F00F00FFF7EAFF86
S315000002F85071FF3815F82130537018BF0120637804
S31500000308E070064C907193701146204605F072FC19
S315000003180123A36070BD00BFCD3700200020004038
S315000003281FB50023CDE90133204A214C0393FF234F
S315000003388DF809302378516C906B0140C907DBB200
S315000003482AD5022B28D81B49906C01EB830182B26F
S31500000358C97819B110F4004F18BF0022164917487A
S3150000036821F813201649012202FA03F30A781343E7
S315000003780B700378B3B100230278DA40D207D9B2FA
S315000003880CD521700278012404FA03F35340DBB23A
S31500000398037001A8FFF79EFF04B010BD0133032BBD
S315000003A8EAD1F9E703232370F6E700BF00200040EF
S315000003B8D9370020CD37002068310020DA370020F1
S315000003C8DB37002007B5012308226946002000F024
S315000003D8E1FB4FF6FD71684600F064F803B05DF87E
S315000003E804FB07B5012308226946002000F0D2FB6A
S315000003F8684600F0BDF803B05DF804FB07B50123B5
S3150000040808226946002000F0C5FB684600F02DF872
S3150000041803B05DF804FB73B500254FF6FF760BF0C5
S315000004285FF9ECB2A04201D802B070BD20461AF0BE
S31500000438AFFDB04203D0694620461AF091FD01355A
S31500000448EDE737B5002000F06FFB0446022000F008
S315000004586BFB69460546012000F0BFFBAAB2694658
S31500000468E0B200F051F803B030BDF7B5054698B1D3
S3150000047800264FF6FF77F4B220461AF089FDB842F7
S3150000048809D0694620461AF06BFD082269462846B7
S315000004982CF09AFA08B11EB1FF24204603B0F0BD2D
S315000004A80126E8E72DE9F34106460F4600254FF6F3
S315000004B8FF78ECB220461AF06BFD404511D069462C
S315000004C820461AF04DFD0822694630462CF07CFA83
S315000004D858B125B1FF24204602B0BDE8F0810125B8
S315000004E8E7E7314620461AF05BFE4FF6FD739F425A
S315000004F803D0394620461AF01DFD024A535D0133E2
S315000005085355E8E7DE3700200128F8B505461646B4
S3150000051812D80B4F3B5C8BB91AF042FE044638B929
S315000005284FF6FD739E4203D0314628461AF002FD67
S3150000053801237B552046F8BD6A24FBE77624F9E7B4
S31500000548DE370020012808B50ED8084A135C2BB9F7
S315000005584FF6FF711AF0EEFC002008BD013BDBB236
S315000005681354002BF8D1F3E76A20F6E7DE370020AC
S3150000057808B5FFF77AFFBDE80840FFF7E3BF01209B
S3150000058870470120704701207047000010B50648E3
S31500000598012105F093FCBDE8104001230322052143
S315000005A8002006F01BBE00BF00250A0010B51D4836
S315000005B886B0012105F082FC00241F2321468DF810
S315000005C8063019488DF80440FF23CDE903448DF819
S315000005D805408DF811308DF807408DF808408DF8E4
S315000005E80940059405F058FB8DF80700204605F0EC
S315000005F8C5FB02238DF80E3003238DF806008DF80F
S315000006080D3001A96C2309488DF810308DF8124079
S315000006188DF80F4005F060FB044803A905F0EAFAD7
S3150000062806B010BD009204000024F400002000402B
S31500000638034BD3F89433012B0CBF012004207047D9
S315000006480000144210B50948012105F037FC0023C3
S3150000065804220821022006F0C1FDBDE8104001234E
S3150000066803220921022006F0B9BD00BF00250A00B1
S3150000067830B5124C89B00025032301AA2946204625
S31500000688CDE9015503958DF80A3007F08EFA636BAC
S3150000069843F01C036363236B43F0010323630D22BA
S315000006A8294604A82CF0C8F9012304A920468DF888
S315000006B8103007F027FA09B030BD00BF00A001408E
S315000006C810B50446034805F037FD034BB0FBF4F0BC
S315000006D8D86110BD0022040000A00140034BDA696E
S315000006E850436422B0FBF2F05866704700A0014000
S315000006F870B504460A20FFF7F1FF0C4E04EB4105DE
S31500000708AC4206D10020FFF7E9FF094B02225A60E6
S3150000071870BD304607F073FB34F8020BFFF7D0FFC5
S31500000728FFF7A6FF642003F06FFFE9E70020054006
S3150000073800A0014001480621FFF7DABF3C2000204F
S3150000074801480521FFF7D4BF0E20002008B505484B
S31500000758012105F0B3FBFFF775FFBDE80840FFF779
S31500000768E9BF00BF0022040008B5C37B1BB9C37CE0
S315000007781BB1012B0FD0812008BD017D82898B1CFE
S315000007889A420BD380680CF027FA08F05FFD002820
S31500000798F1D00020F0E708F073FDF8E78020EBE7DA
S315000007A810B5437D012B044613D10368028A598884
S315000007B858790BF0E3FA60B123685B88032B06D0FF
S315000007C803F2EF139BB2042B01D9C32000E081206A
S315000007D810BD637D002BF8D12368228A5988587981
S315000007E80BF0C3FA0028F0D023685B8840F2024277
S315000007F89342ECD008D8002BE9D0032BE5D120464C
S31500000808BDE81040FFF7B0BF40F205429342D6E775
S315000008187047012070470120704701207047B520B6
S3150000082870477047002070470020704700207047C7
S31500000838002070470020704700207047012070474D
S3150000084801207047B5207047002070470020704788
S315000008580020704700207047704700207047704797
S31500000868B52070477047704700207047842070474E
S315000008787047704770477047704770470120704748
S315000008887047002070470000034B1B681878012842
S3150000089808BF0220704700BF982800207047002034
S315000008A870470020704700207047002070470020DE
S315000008B870470020704700207047002070470020CE
S315000008C870477047B5207047002070470020704772
S315000008D870470020704770477047704770477047E9
S315000008E800207047B5207047704770477047002052
S315000008F8704770477047704770470000094A0023E1
S31500000908FF21137082F8783082F8653082F87730E4
S3150000091882F8793082F87A1082F87B30024A1360BE
S31500000928704700BFFA380020782A0020044B184484
S3150000093890F8663090F86500181AC0B2704700BF84
S31500000948FA380020F8B5214C94F87B201044C2B23E
S3150000095810462244FFF7EAFF1D4B92F865501E78B1
S315000009684FF0000C0746254460465FFA8CF2974222
S3150000097824D96B7811B10AB92D2B17D0782B21D031
S31500000988582B05D108B137220AE0013A012A16D9AF
S31500000998602B19D8402BF6D83A2B34BF30220022C8
S315000009A89B1ADBB29E4205D900FB06300CF1010CFE
S315000009B80135DAE7052384F879300020F8BD1026DA
S315000009C80020F3E70028E0D05722E9E7FA380020AC
S315000009D8862000202DE9F0470D468F680A683A49B7
S315000009E80446102003F074F96B68ABB93749102038
S315000009F803F06EF9102009F0D9FAEA681AB13449F9
S31500000A08102003F065F93349102003F075F9BDE8A5
S31500000A18F047102009F0CABA002CEBD0EB681BB1DE
S31500000A282D49102003F054F9DFF8D880DFF8D89064
S31500000A38DFF8D8A0013F002617F8014F24B9254949
S31500000A48102003F059F9D5E72B691BB14146102050
S31500000A5803F03EF9752C24D0762C24D0772C24D09C
S31500000A68732C24D0722C24D0712C24D0622C24D040
S31500000A786E2C24D02A2C24D01849194B212C18BFA7
S31500000A881946102003F024F9212CD5D02B692BB157
S31500000A9853F826201349102003F01AF90136F6B246
S31500000AA8CAE74946EDE75146EBE70F49E9E70F493B
S31500000AB8E7E70F49E5E70F49E3E70F49E1E70F499C
S31500000AC8DFE70F49DDE700BF47D40200C1DD0200BA
S31500000AD844D4020089D4020034D40200E8D30200C8
S31500000AE831D402003ED402001AD40200D1D3020047
S31500000AF826D40200C6D30200DBD30200C0DD020002
S31500000B08E5D3020098D5020003D402000ED40200F1
S31500000B18FFF7F4BE034B93F8770093F87B30C01ABF
S31500000B28C0B27047FA3800200021FFF70BBF00005B
S31500000B3810B50A4B93F87B20024453FA82F292F8D6
S31500000B48652013445C78A4F12D0359425941FFF7F7
S31500000B58F9FE2D2C08BF404210BD00BFFA38002010
S31500000B6838B50A4D95F87B20C4430244D2B2E40F47
S31500000B7821B11046FFF7DAFE001B087045FA82F22B
S31500000B8892F8650004440248204438BDFA3800202B
S31500000B98FB3800202DE9F3410E460DF107011546F5
S31500000BA81C46FFF7DDFF9DF80730AB4288BF8DF87E
S31500000BB807509DF8077080460CB1EC1BE4B222463C
S31500000BC8002130462BF038FF3A46414630192BF0C3
S31500000BD819FF384602B0BDE8F08138B508220C4640
S31500000BE80123FFF7D7FF04F10803621E043413F844
S31500000BF8011D12F8015F1D70A3421170F7D138BDAF
S31500000C0838B5014605460120FFF7E4FED5E901435C
S31500000C186CB91C46084D236863B12946102003F0B9
S31500000C2857F821460020FFF7D5FE1434F3E71B7862
S31500000C386E2BEFD038BD00BF98D5020008B5044921
S31500000C48102003F045F8BDE80840102009F0AEB9B9
S31500000C584AD4020010B5FFF7F1FF054C236803B923
S31500000C6810BD21460020FFF7B5FE1434F6E700BF95
S31500000C78A42203001E4B1F4953F820202DE9F047F4
S31500000C881D4E102003F024F833681BB9BDE8F04761
S31500000C98FFF7E0BFFFF7D2FF184DDFF868800024A2
S31500000CA895F87B30E7B2013B9F4204DB3068BDE82C
S31500000CB8F047FFF7A5BF45FA84F34FF0000A93F80B
S31500000CC86590A9443846FFF731FE5FFA8AF38342F6
S31500000CD805D30B49102002F0FBFF0134E0E74B4433
S31500000CE841465A78102002F0F3FF0AF1010AE9E7B3
S31500000CF8981B00208AD40200782A0020FA3800209F
S31500000D0899D502008FD402002DE9F84F824C94F849
S31500000D187730002B00F09680804B1B7813F0010F7C
S31500000D2804F101081BD07E4E0025E8B2FFF7FEFD50
S31500000D3844FA85F3024693F865101020414409F0F9
S31500000D4830F93146102002F0C3FF013594F87720B8
S31500000D58EBB29A42E9D87349102002F0B9FF94F829
S31500000D6877A0714A002644FA86F3304693F86590D0
S31500000D78FFF7DCFD4FF0000CC14465461768002FED
S31500000D8850D0013FCE4618E023B9002D47D115466D
S31500000D981432F3E71EF8011BA1F1410BBBF1190F41
S31500000DA898BF2031A3F1410B98BFC9B2BBF1190F07
S31500000DB89CBF2033DBB28B42EAD1AEEB09018142FC
S31500000DC817F8013FE0D1002BDFD11546574B1D60C0
S31500000DD894F87B30013384F87B30D5E9013201364B
S31500000DE8F6B2A3B312786E2A30D03F2A23D04FF03A
S31500000DF80009C8464FF0050B072394F87710AA6830
S31500000E08B14212F8087029D8AFB1424453782A2B58
S31500000E1811D0212F1CBF032384F879300BE04FF043
S31500000E28010CB5E7BCF1000F01D1002DCED102238C
S31500000E3884F87930002594F87900002868D1686824
S31500000E480BF0B6FDBDE8F84FFFF758BD1A46B24598
S31500000E5889D8032384F879301546ECE7622F30D019
S31500000E6806D8002F52D0212F3AD084F8793037E0AF
S31500000E78732F15D8702FF8D9732F1FD0722F47F6F6
S31500000E88FF7A18BF4FF0FF3A01214846FFF75AFD8F
S31500000E9850454FF0070323D9042284F879201FE030
S31500000EA8A7F17502022AE0D8752F04D0762FE3D170
S31500000EB84FF6FF7AE8E74FF0FF0AE5E74FF07F0ABB
S31500000EC8E2E794F87B204A4454FA82F292F86520C5
S31500000ED822445278222A03D07B2A01D084F879B09A
S31500000EE8AA68424452782A2A94F879201CBF08F145
S31500000EF801085FFA88F8002A9DD1212F1FBF013605
S31500000F0809F10109F6B25FFA89F976E70322C4E71F
S31500000F18FFF7B0FE96E700BFFA380020D539002063
S31500000F2899D5020087D40200A4220300782A00205B
S31500000F382DE9F3415E4C5F4F06460D464FF000081B
S31500000F4866B90DF10701284609F024F878B1262874
S31500000F5800F0AA80012384F879304BE0002D00F0D8
S31500000F68A38016F8013B8DF80730013DEDB23A78BB
S31500000F789DF807303B700D2A01D10A2BE0D00D2BC6
S31500000F880CD0A3F10A025142514122788846042A1C
S31500000F98D6D8DFE802F0051D263C31000121F4E72A
S31500000FA821B1FFF7B1FE4FF00108C9E7202B64D045
S31500000FB8222B07D10223237094F87820642A5ED165
S31500000FC80623C8E77B2B01D10323F4E70123F2E7C5
S31500000FD809B9202BF0D194F87730112B40D103238F
S31500000FE8B9E7222BF7D00029E6D0052384F8793013
S31500000FF84FF0010804232370B8F1000FA0D094F82D
S31500001008790008B1FFF736FEFFF778FC98E77D2BE5
S3150000101894F87A0003D1FF28DDD005239BE7602BDF
S3150000102813D8402B13D83A2B34BF302200229A1AF1
S31500001038D2B20F2A10D8FF280BD002EB0012FF23DA
S315000010488DF8072084F87A30B6E75722EFE737227B
S31500001058EDE784F87A2073E7202B3FF471AFDCE7DD
S315000010680133DBB284F87730234494F8782083F888
S31500001078652000232370002993D1884660E72378EA
S31500001088012B09D19DF80730A3F1410119299CBF0D
S315000010982033DBB28DF80730A3189DF80710597076
S315000010A8013284F878204BE7404602B0BDE8F0816B
S315000010B8FA380020423A002049BA89B24840C0F3BB
S315000010C803134340180380B258405B0103F4FF53EF
S315000010D85840704710F058B838B5A0F14303044695
S315000010E80A2B32D8DFE803F0060A0A121231313128
S315000010F831311100BDE838400EF006BF0EF0CCFEC7
S3150000110820B10EF001FF0028FBD138BD124D28781A
S315000011180028FAD101232B7009F09CF9462C11D02E
S3150000112807D8443C012C0AD90C487A2101F06EFCF8
S3150000113805E0472CF8D140F601002AF083FD00238C
S315000011482B70E2E740F60200F7E7BDE838400348AF
S315000011588C2101F05BBC00BF463A002001D5020095
S3150000116870477047704770477047704770477047B9
S315000011787047704770477047704770470020704740
S3150000118870477047002070477047704700207047C7
S315000011980020704770477047704770477047704720
S315000011A870477047904270B55E781D789C7810D36A
S315000011B80136F6B25E700DB1013D1D700CB1013CF1
S315000011C89C70022E01D8002070BD00225A7005209E
S315000011D8FAE788420ED30135EDB21D700EB1013E15
S315000011E85E700CB1013C9C70022DECD900221A707D
S315000011F80420E9E70134E4B29C700EB1013E5E704A
S315000012080DB1013D1D70022CDDD900229A70032014
S31500001218DAE70000034B00221A70034B01221A700A
S31500001228704700BFD82E0020B0200020094BD3F805
S31500001238A43F012B10B508D1074C237823B10748E2
S3150000124811F098F80023237010BDBDE81040FFF791
S31500001258E1BF00BF00001442B0200020D82E0020B5
S3150000126810B5344C344BA0684FF47A7240884FF46A
S315000012782F71FFF797FF0428034637D005283AD081
S31500001288032806D100223C21104609F069FAFFF727
S31500001298C1FF2A4806F0B3FDA068294B00887822CA
S315000012A84B21FFF77FFF04282ED0052831D00328CD
S315000012B807D100231A463C21184609F051FAFFF7D0
S315000012C8A9FF204BD3F89423012A2BD1D3F89433C2
S315000012D8012B04D119221146104609F041FA09F0EA
S315000012E829FBBDE81040154806F089BD03230022F6
S315000012F81E213220C9E70022032311463C2009F0AB
S315000013082FFAFFF793FFC4E700231A461E2132205F
S31500001318D3E700231A4619463C2009F021FAFFF7BD
S3150000132885FFCEE7D3F894030028D8D11E220123DF
S315000013381146D2E7401A00207839002000200540DF
S31500001348843900200000144270B5304E304B3068A6
S31500001358192128224088FFF725FF054630682D4BBE
S3150000136880882822FFF71EFF044630682A4BC0886B
S315000013789A223621FFF716FFD5B9DCB9002842D1E3
S31500001388264806F03CFD264BD3F89423012A32D191
S31500001398D3F89433012B04D119221146104609F0CB
S315000013A8DFF909F0C7FABDE870401C4806F027BD0A
S315000013B8052D03D0052C01D0052808D100220223CB
S315000013C811463C2009F0CCF9FFF730FFD8E7042D89
S315000013D803D0042C01D0042808D1022300221E21A0
S315000013E8322009F0BDF9FFF715FFC9E700220223ED
S315000013F83C211046F5E7D3F894030028D1D11E22E4
S3150000140801231146CBE70528E5D1D7E7401A002086
S315000014187B390020813900207E39002000200540D4
S3150000142800001442104B5B68D3ED007AF5EE407A63
S31500001438F1EE10FA17D093ED017AB5EE407AF1EE97
S3150000144810FA10D0DFED096A094827EE267A67EE0A
S31500001458A67ABCEEC77AFDEEE77A17EE102A17EEE3
S31500001468901A00F0F3BF7047401A002000007A4433
S3150000147800C0004030B5144B04460FCB85B06D460E
S3150000148885E80F001148012104F018FD10480121D4
S3150000149804F014FD01230B220221002005F09EFE14
S315000014A80B2201230321002005F098FE0023636424
S315000014B840F20223A364032363642946204605F009
S315000014C80FFF05B030BD00BFC0D502000082040082
S315000014D800250A002DE9F041314E06F110040746B1
S315000014E80FCC8EB06D460FC594E807004FF416531F
S315000014F885E807002B480293012104F0DFFC2A48FF
S31500001508012104F0DBFC2948012104F0D7FC002363
S3150000151801221146184605F061FE00210123042226
S31500001528084605F05BFE6946384606F015FC7B6FF3
S31500001538103643F003037B670FCE07AD0FC594E85B
S3150000154807004FF0000885E807004FF4E133184814
S31500001558C7F878800121174C029304F0AFFC434684
S3150000156801220721022005F039FE01230422062163
S31500001578022005F033FE07A9204606F0EDFB0E4BC8
S315000015884FF48012C3F880211A60636F43F0030397
S31500001598636740F60B33A3670EB0BDE8F08100BF62
S315000015A8C0D502004041050000250A0000320400AB
S315000015B8004204000004014000E100E010B5144BAD
S315000015C8144C00221A70FFF7C1F8206808F05AFB7D
S315000015D8606808F039FFA06800F022FF0E4AD36C55
S315000015E843F00403D36406F09BFD60730B4810F0C8
S315000015F8C1FE0B4810F0BEFE0A4810F0BBFE0A48B2
S3150000160810F0B8FEBDE81040084810F0B3BE00BFA1
S31500001618D02E0020401A0020000401401027002088
S31500001628E02E00206C25002050260020642500208E
S31500001638014B00221A707047102700202DE9F0414F
S31500001648384D82B06B7B02AF13B906F069FD68733B
S31500001658286808F04BFB34492868202208F062FB0A
S31500001668022804465AD12B684FF02108CDF800808D
S31500001678083300224FF6136101200AF0A9FF2B68F0
S31500001688CDF800800A3300224FF6126101200AF0D5
S315000016989FFF2B68CDF800804FF614610C330022AB
S315000016A801200AF095FF286803894289B0F80CC022
S315000016B80A2B34BF012102210A2A34BF4FF0010E3A
S315000016C84FF0020EBCF1090F714498BF01240C4477
S315000016D8E4B204F11B01C9B2C81D00F4FC706E46E1
S315000016E8ADEB000D0DF108085FFA8CF0D2B2DBB253
S315000016F80190009240460D4A1A342BF0A5F9E1B242
S31500001708404606F04FFD6873FFF71EFE08480023A3
S315000017184FF47A71037010F039FEB546BD46BDE840
S31500001728F08100BF401A0020D33800207AD5020085
S315000017386C250020F0B5304C304E67688BB000251C
S315000017480120357008F028FE38600120676808F027
S3150000175849FE63687860DFED2A6A93ED007AD3ED77
S31500001768017A27EE267A67EEA67ABDEEC77AFDEEEF
S31500001778E77A17EE102A17EE903A2127ADF81420CB
S31500001788ADF816302A4605AB009740F20241012013
S315000017980AF01EFF0DF116032A4640F2054100978E
S315000017A801200AF015FFFFF73DFE6368154AD3EDE1
S315000017B8007AB0EE007A77EEC77A0F21FCEEE77A68
S315000017C806A8CDED027AD3ED017AFCEEE77ACDEDE7
S315000017D8037A9DF80C3000939DF808302BF034F905
S315000017E80E2106A806F0DEFC4FF4FA616073304657
S315000017F810F0CCFD0BB0F0BD401A0020502600209A
S315000018080000C8429BD50200F0B5224C83B0A06800
S3150000181802AF00F0C7FDA368212500950233002218
S315000018284FF6116101200AF0D3FE00950022A36845
S315000018384FF6156101200AF0CBFEA36859881B886C
S315000018480A2934BF012502250A2B34BF01220222A8
S31500001858154405F1160202F03802ADEB020D6E468C
S315000018680D4A46F8081B05F10F0130462BF0ECF837
S3150000187805F10E01304606F095FC60730748002313
S315000018884FF47A61037010F081FDFFF7E9FC043725
S31500001898BD46F0BD401A0020AAD5020064250020E6
S315000018A808B509F025FD022803D0BDE8084008F070
S315000018B855B9024B00221A7008BD00BFE02E002061
S315000018C810B5064C00232370FEF73AFF204642F275
S315000018D81071BDE8104010F059BD00BFD82E002089
S315000018E80020704708B50D48FFF7C4FD0C48FFF700
S315000018F8F1FD0C48022104F0D7FD01210A4804F045
S31500001908DDFA02F01DFDFEF751FEFEF73FFE09F077
S3150000191819F8BDE80840054810F02CBD00C0004085
S315000019280000014005002400A0091400D02E002064
S315000019382DE9F047204EDFF8A090DFF8A0A000249C
S315000019485FFA84F8404610F041F8FF2805460CD1A6
S315000019581A493078224602F0CFF93078013408F077
S3150000196825FB152CECD1BDE8F087154B59F824203A
S31500001978144947B233EA270328BF5346307802F0A2
S31500001988BBF9002FE9DA14B1B8F1030F08D10E4BF1
S315000019980E49307815F0010F08BF194602F0ACF968
S315000019A80A2CDAD10A4B0B49307815F0010F08BF1B
S315000019B8194602F0A1F9D0E7C72000202ED602006A
S315000019C8ECD5020056D6020007D60200F1D5020071
S315000019D823D6020019D6020064D7020089D4020071
S315000019E882B2074B42B11A80000C064B0ABF4FF66B
S315000019F8CE2218801A8070474BF6EF62F3E700BFD5
S31500001A084C2000204E2000200B4BB3F900201888EC
S31500001A18002AB8BF80F0620042001A80074AB2F96D
S31500001A28001013880029BCBF83F4805383F00B038E
S31500001A3859001180584070474C2000204E20002045
S31500001A48034B1870034B1970034B00221A7070472A
S31500001A58DD370020DC3700203C3A00202DE9F74F1F
S31500001A68DFF8989099F8003006460F46002B41D0CB
S31500001A784FF6FB7398423DD8DFF88480DFF884A0E0
S31500001A8898F8004000259AF8000050FA85F0694653
S31500001A98C0B219F065FA0822394668465FFA85FB2E
S31500001AA82AF092FFF8B95C4698F80030A3420AD1AA
S31500001AB899F80020631CDBB29A4288F8003004BF0C
S31500001AC8002388F800309AF800301C44E4B23946FE
S31500001AD8204619F065FB68B93146204603B0BDE8D3
S31500001AE8F04F19F027BA99F800200135EBB29A425F
S31500001AF8C9D8D9E703B0BDE8F08F00BFDC370020AE
S31500001B083C3A0020DD370020024B187800F07F00B1
S31500001B18704700BFC13A0020034B18780130C0B2A5
S31500001B28187000F07F007047C13A00201FB5030AFD
S31500001B388DF80E300323009303AB8DF80D0000F0EB
S31500001B48CDF905B05DF804FB1FB5030A8DF80F1033
S31500001B5804218DF80E30009103AB8DF80D0000F0CE
S31500001B68BDF905B05DF804FBF0B589B01768BDF896
S31500001B7838509DF83C60CDF809708DF812505768BA
S31500001B88DDF840C0BDF84440CDF80D702D0A012E91
S31500001B988DF811308DF813508DF8146016D0032E79
S31500001BA81BD1DCF80030CDF81530DCF80430CDF860
S31500001BB819309DF848308DF81D3016230093BDF86E
S31500001BC84C2002AB00F08AF909B0F0BD8DF815403B
S31500001BD8240A8DF816400F23F0E70120F4E71FB515
S31500001BE80446084611461A4602238DF80D1000933E
S31500001BF8214603AB00F072F904B010BD10B586B0EB
S31500001C0814461A460B68CDF80D304B68CDF81130DE
S31500001C180A230093342103AB8DF8154000F05EF9D2
S31500001C2806B010BD30B585B00024ADF80A20021DF7
S31500001C3892B2012A1D46ADF80840ADF80610ADF877
S31500001C48044003D94FF6FF72904207D1064A2B4645
S31500001C58127801A917F0E0FA05B030BD014601AACD
S31500001C68204617F09FFBF7E7CD2000202DE9F04F1F
S31500001C782DED028B87B00C4600901D4617464AB3D9
S31500001C88104610F08FFFC0F3470A2DB3284610F010
S31500001C9889FFC0F34708FFF73FFF009B8DF8100048
S31500001CA88DF811308DF813401B0A240A00220621EC
S31500001CB804A88DF812308DF814408DF815A011F08F
S31500001CC86DF8ADF80E0048B9182007B0BDEC028BC8
S31500001CD8BDE8F08F9246D8E7A846DCE74FEA4A0106
S31500001CE8C9B201F1060B07315FFA81F901EB480128
S31500001CF85FFA8BF3C9B20DF10E0008EE103A11F037
S31500001D0844FA04460028DFD1834606265FFA8BF19B
S31500001D188A45BDF80E3011D818EE101A42461846F4
S31500001D2811F0A8FAE6B2B045BDF80E3027D8BDF8CE
S31500001D38482000980621FFF775FFC6E7490001F01D
S31500001D48FE013846019311F081FA019B024631469D
S31500001D58184611F08FFA711FBDF80E300193C9B2FB
S31500001D68384611F073FA019B711C0246C9B218462F
S31500001D78023611F07FFA0BF1010BF6B2C6E77600D0
S31500001D88F6B231462846019311F060FA019B0246E5
S31500001D984946184611F06EFA711CC9B22846BDF8B4
S31500001DA80E7011F053FA09F101010246C9B238461C
S31500001DB809F1020911F05EFA01345FFA89F9B1E70F
S31500001DC8F0B589B00E4602A9054609F045FB00287C
S31500001DD87ED0FFF7A1FE8DF810000FF061FF8DF899
S31500001DE811000FF05DFF3C4A8DF81B501368CDF8C3
S31500001DF813305368CDF81730BDF808308DF81C300D
S31500001E08000A1B0A8DF812008DF81D3000229DF875
S31500001E180D308DF81E300F2104A810F0BFFFADF865
S31500001E280600002856D000279DF80D30FAB29342D6
S31500001E3816D801231A460DF10E010DF1060010F011
S31500001E48E9FF00279DF80E30FAB2934224D8BDF870
S31500001E580630324620210020FFF7E4FE09B0F0BD27
S31500001E680021284609F01EFB01231A4604468DF870
S31500001E7805000DF105010DF1060010F0CBFF012359
S31500001E88240A1A460DF105010DF106008DF80540E4
S31500001E98013710F0BFFFC7E70121284609F002FB0A
S31500001EA801231A4604468DF805000DF105010DF1CA
S31500001EB8060010F0AFFF0123240A1A460DF10501AA
S31500001EC80DF106008DF80540013710F0A3FFB9E7BC
S31500001ED8A320C3E71820C1E7B5390020F7B50E4699
S31500001EE89DF8201001911C4617460546FFF714FE7B
S31500001EF8019920700022204610F050FF034638B1A1
S31500001F083A463146284603B0BDE8F040FFF78ABE98
S31500001F18182003B0F0BD08B5FFF7E4FCBDE808409B
S31500001F280BF04CBF08B5FEF79DFC0BF071FFBDE842
S31500001F38084007F0DFB908B5FEF795FC06F065F925
S31500001F48BDE8084007F0DCBBFEF7ADBCFEF7B1BC48
S31500001F580020704738B504460D46FEF7CAFC2946E8
S31500001F682046BDE8384008F097BBFEF7A4BCFEF74C
S31500001F78B0BC4022032101200CF06CBB01220321D6
S31500001F8810460CF067BB0022032101200CF062BB4F
S31500001F980222032101200CF05DBB01220021092049
S31500001FA80CF058BB2DE9F74FDFF8849006460D462E
S31500001FB814461F4603F10C0A4FF0010B15B903B07E
S31500001FC8BDE8F08F102DA846184B28BF4FF0100813
S31500001FD85FFA88F13A4652F8040B43F8040B524567
S31500001FE8F9D101919AF800201A70114889F80F4022
S31500001FF8002389F800B089F80E30013419F04CF93D
S315000020080B480199E4B2324612F801CB10F8013BAD
S3150000201883EA0C0302F8013C931BDBB29942F3D81E
S31500002028A5EB0805ADB21646C8E700BFEA39002099
S31500002038E93900202DE9F74F16460193BDF830908F
S315000020480D9B344A00930F468046034600F10C0167
S3150000205853F8040B42F8040B8B42F9D12E4C1B782B
S3150000206813704923237020464FEA1923A37384F873
S315000020780F9019F011F9237883EA162323706378F1
S315000020884FF0020A7340637052464FF0000B1BE094
S31500002098C2F11005A6EB0B039BB2ADB29D4228BF59
S315000020A81D4600231FFA83FCD018AC45C0B21BD3CB
S315000020B82A44D2B2AB44102A2F441FFA8BFB03D111
S315000020C8204619F0E9F80022B345E1D312B12046BB
S315000020D819F0E2F8BAF1010F4FF000020ED0019F95
S315000020E84FF0010A4E46D0E717F803C014F800E08F
S315000020F88CEA0E0C04F800C00133D3E70099236874
S3150000210800980B604346042103B0BDE8F04FFFF783
S3150000211849BF00BFEA390020E9390020F7B5099F11
S31500002128BDF82050CDE9005706461C46FFF782FF4A
S315000021382DB13346012229462046FFF733FF0020FA
S3150000214803B0F0BD2DE9F743BDF82890DFF83C80D1
S315000021581D4604460E4617460346494628460122AA
S31500002168FFF720FF2B463A4631462046CDE9009830
S31500002178FFF760FF0B98042241462AF025FC002849
S3150000218814BF7E20002003B0BDE8F083F438002099
S3150000219873B51C46044D8B181E592E60CDE90045B3
S315000021A8FFF7D0FF02B070BD8F3A002008B50320B4
S315000021B8002304220B2105F011F8BDE808400A2087
S315000021C802F022BA08B518B1FFF7F0FF002008BDE3
S315000021D8012304220B21032005F000F80A2002F04F
S315000021E813FAF3E770B588B014460E461D460190FB
S315000021F8FFF7DCFF0D4B039302AB049303A90123FE
S315000022080198ADF81C40ADF814308DF808600695B5
S3150000221806F0A8FF00284FF000000CBF0024312468
S31500002228FFF7D0FF204608B070BD00BFB400040019
S315000022380B4601222021FFF7D5BF0B4601220021BC
S31500002248FFF7D0BF07B50DF10701FFF7F6FF30B965
S315000022589DF80700C0F3C00003B05DF804FB00203A
S31500002268FAE70000F0B589B00DF107030122002155
S315000022780546FFF7B7FF9DF80730DB0631D5FFF7B0
S3150000228895FFF4238DF80430174B039301AB002711
S315000022980493012602AB03A92846ADF814600693F9
S315000022A8ADF81C7006F05EFFB8420CBF3C46312400
S315000022B83846FFF787FF8CB9304602F0A5F9214664
S315000022C80DF1070332462846FFF78CFF9DF80730C5
S315000022D803F09003902B0CBF04460224204609B055
S315000022E8F0BD0E24FAE700BFB400010013B50123C0
S315000022F80B2104220446032004F070FFFFF756FF63
S31500002308642002F081F90DF107012046FFF790FFDE
S3150000231868B99DF80730812B09D12046FFF7A2FF3F
S31500002328044608B9FFF74EFF204602B010BD102438
S31500002338FAE7000030B500238BB00B8013800190BC
S315000023480D461446FFF732FF02238DF80C30144B66
S31500002358059303AB06930123ADF81C3004AB089331
S315000023680198042305A9ADF8243006F0FBFEA0B9B0
S315000023789DF810209DF8113003EB02232B809DF861
S3150000238812209DF8133003EB022323800446002015
S31500002398FFF718FF20460BB030BD3124F7E700BF22
S315000023A8B400040007B501900748FFF74BFF019AF0
S315000023B830B10548911C03B05DF804EBFFF7BABFCE
S315000023C803B05DF804FB00BF00C0004030B58BB019
S315000023D80C460190FFF7EAFE01238DF810300F4BEB
S315000023E8059304AB069304F0380402238DF81140D4
S315000023F8ADF81C30002403AB05A901980893ADF885
S31500002408244006F0AFFEA04220460CBF25463125E3
S31500002418FFF7D8FE28460BB030BD00BFB400010058
S3150000242810B50023074C438003800121064803F0BA
S3150000243845FD2046FFF75AFF20461021BDE810400B
S31500002448FFF7C4BF00C0004000250A0030B58BB0B6
S31500002458154601900C46FFF7A9FE4FF47A72B5FBB4
S31500002468F2F302FB1355B5F5487F0198DBB235D375
S3150000247801335B00DBB204F5C34128314FF47A74AB
S3150000248891FBF4F204FB1211B1F5487FD2B22FDBAF
S3150000249801325200D2B28DF80D301A4B0593052140
S315000024A803AB00248DF80C100693ADF81C1002AB94
S315000024B805A98DF80F2008938DF80E408DF8104069
S315000024C8ADF8244006F04EFEA04220460CBF254635
S315000024D83125FFF777FE28460BB030BD5B00A5F522
S315000024E89675DBB2B5F5FA7F38BF43F00103C2E74C
S315000024F85200A1F59671D2B2B1F5FA7F38BF42F013
S315000025080102C8E7B40001000020704700207047A8
S31500002518002070477047704700F084B80020FEF727
S3150000252803BB7047704710B50020FEF7FDFA044656
S315000025380120FEF7F9FA81B2E0B2BDE8104000F0DA
S3150000254889B87047F7B502AB03E906000446174693
S315000025580FF004F9064620460FF010F99DF80050D2
S315000025688EB1202C0FD83B78012B2AD803EB4313C6
S31500002578294923444FF6FF7031F81320824202D0CE
S31500002588013221F81320254B254E33F8140036F86E
S3150000259814104FF6FF7290421CBF421C23F81420F9
S315000025A804F0FD02092A24D19A8AB68A2A44B2423C
S315000025B8B4BF9A829E8233F814308B4224D203B079
S315000025C8F0BD022BDFD1144B33F814104FF6FF720F
S315000025D8914204F121021CBF013123F8141033F88B
S315000025E812104FF6FF7081421CBF013123F81210FA
S315000025F8C9E71D2CDFD15A8F56198E4203DA013AE4
S315000026082A445A87D7E759878842D8D2204603B042
S31500002618BDE8F040FEF72DB970330020CC3200201B
S315000026281E3300200248522200212AF005BA00BFB4
S31500002638CC32002002485222FF212AF0FDB900BF01
S315000026481E33002008B5FFF7EDFFBDE80840FFF789
S31500002658F1BF0000014B23F8101070471E3300200D
S3150000266810B5104C1049A161032321660F491022A9
S31500002678C4E904330E4BE361C4E9191200230D497A
S31500002688A362E01D6362E3622367E366636722620F
S315000026982AF018FA084920462AF014FA2023A371CA
S315000026A810BD00BF00240020AC2E0300AC3700206C
S315000026B8BC370020B52E0300B92E03002DE9F84FCC
S315000026C8DFF87C8098F800308246894616460BB9B2
S315000026D8FFF7C6FF182707FB0A873D6FD7F86CB0C8
S315000026E85D452BD9BC6E796E641BB44228BF34464F
S315000026F82944484622462AF077F9BB6E2544A14468
S31500002708361BAB4208BF0025ABEB0502964228BF35
S31500002718164656B1182303FB0A833246596E4846B5
S3150000272829442AF061F93444354424B1182000FBC1
S315000027380A88C8F870502046BDE8F88F0024E3E7F9
S315000027480024002037B50446CDE9002103F0EDFF4B
S31500002758DDE9002105462046FFF7B0FF0446284676
S3150000276803F0E9FF204603B030BD00002DE9F84329
S31500002778134C1E4623788146884617460BB9FFF741
S315000027886FFF03F0D2FF61690D4A0025536E3BB116
S315000027980135A94202F11802F8DC4FF0FF350AE0CC
S315000027A8A942FADD182202FB0544C4E91898A7666F
S315000027B82367E366666703F0BEFF2846BDE8F8832D
S315000027C800240020FFF74CBF012270B511460420F3
S315000027D803F0F6FD1C4B1D4DD3F8F0201C4842F0C3
S315000027E80102C3F8F020D3F8FC204FF0604442F011
S315000027F88072C3F8FC20174BC4F8B03F00260223AA
S31500002808C4F8006EC4F8806EC5F8F03003F094FC86
S3150000281800F5D520104B114A00F2FC40B0FBF3F04E
S315000028280F4B01382861C4F8406E1A600D4BC4F886
S31500002838803E4FF48073C5F80433D4F8003E43F461
S315000028488073C4F8003E70BD00ED00E0000004E0AF
S3150000285806000E0055CEACC5F8590D00FF03004022
S31500002868001000E00D00010010B50121124803F028
S3150000287825FB124B0124C3F81048002004F05CFC29
S31500002888234604220221052004F0A8FC204628F04D
S31500002898ABFFFFF799FF28F0ABFF094B1C70FFF75A
S315000028A891FF2346074908484022FFF75FFF074B79
S315000028B81860C00F10BD00BF00250A000080144232
S315000028C88A3900204F3A0020C02E0300D41D00206C
S315000028D8034BD3F8F000003818BF0120704700BF3B
S315000028E800ED00E0054A4170D12303701378C370E8
S315000028F8090A8170591C117004207047943A002007
S315000029082DE9F74F91F80080B8F1040F82460F467B
S315000029185FD929F0D7F908F10505DFF8C0900190CD
S31500002928EDB24FF6FF760024D9F8F0200AB1A54299
S3150000293807D8281B18BF012004233B7003B0BDE845
S31500002948F08F29F0BFF9019BC01A80B2B0F5FA7F63
S3150000295841D8A4B3012C36D0EA1E04F1010B9442E7
S315000029685FFA8BFB19D1F4B24FF06042D2F8801EA1
S31500002978CB0710D5D9F8FC1041F08071C9F8FC10C6
S31500002988D2F8001E41F48071C2F8001E116A0029AF
S31500002998F0D082F820405C46C6E7AA1E944202D1CF
S315000029A8C6F30724E0E76A1E944210D05444314621
S315000029B814F8024C2046FEF77FFB0646D4E75B2454
S315000029C84FF0010BD0E744464FF0020BCCE75D24ED
S315000029D8CAE70020B0E70120AEE700BF00ED00E03F
S315000029E800B5084B91B0186840226946FFF7AAFE61
S315000029F820B1C2B26946122029F022F811B05DF85A
S31500002A0804FB00BFD41D002042DE704738B50446DB
S31500002A180D460EF0C9FB00F03DFD03F07EFE29468B
S31500002A28204628F0CFFF06492B462246012007F00C
S31500002A38C3FA29462046BDE83840FFF7E5BF00BF80
S31500002A48D02E03006D4B2DE9F0416D4C5A68A265F6
S31500002A585A6AE2656B4AD2F800122166D2F8042255
S31500002A6862669A6AA266DA6AE2661A6B22675A6B25
S31500002A786267DB6BA26BA367D4E90F3512F0040F0C
S31500002A8808BF1D4629F002F9002285420346606503
S31500002A9822655CD35C4A954259D8AA696264E96999
S31500002AA8A164B4F85810C1F30801062953D157494F
S31500002AB88A4250D356498A424DD211884DF642620F
S31500002AC8914248D16268C4F89420A268C4F8982054
S31500002AD840F201704F4A934238BF13464E4A93421A
S31500002AE83CD3D31AE3640023C4E91F33C4E9213372
S31500002AF8C4E92333484EDFF814C1DFF814E1AE42C7
S31500002B0832D8D4E91FC7D4E92165D4E923124FF096
S31500002B18000E013BDBB2FF2B41D1BEF1000F05D001
S31500002B28C4E91FC7C4E92165C4E92312B4F85830BB
S31500002B38C3F30803DA1E0F2A55D8DFE802F05B3A1A
S31500002B48474A54545454545154545454543E0022ED
S31500002B58C4E911221D464FF42060BBE71968B1F19C
S31500002B68CD3FBED10433BAE756F8042D6245C6D325
S31500002B787245C4D2D107C2D5284F002157F8048B15
S31500002B889045BCD00131C9B20629F7D10BB9052346
S31500002B9801E0013BDBB204EB8301CA67AFE7E0461D
S31500002BA84FF0010EBC4637462E460D4611464246A4
S31500002BB8AFE740F60220BDE8F081194BDB6913F058
S31500002BC8020F40F2025318BF1846F4E740F60320F6
S31500002BD8F1E740F60423B0F5206F08BF1846EAE788
S31500002BE840F60520E7E7013B40F60722382B98BF59
S31500002BF81046E0E740F60120DDE700BF00ED00E003
S31500002C080000002000E100E0C019002000020000DA
S31500002C18B8D302009C000020E01900207C000020A8
S31500002C280020054007B501F08DFA0E48012103F092
S31500002C3845F90D48012103F041F9002301220E212F
S31500002C48032004F0CBFA09490E2001F093FA012378
S31500002C580E22CDE900331146032004F079FA03B0B9
S31500002C685DF804FB4041050000250A00CD2C000054
S31500002C780E280ABF014B002018787047F338002049
S31500002C880E2804BF014B1970704700BFF3380020A7
S31500002C980E2805D1034A1378B3FA83F35B09137038
S31500002CA8704700BFF33800200E2809BF044B0020E8
S31500002CB8D3F8B805B0FA80F008BF4009704700BFDE
S31500002CC80010144238B50446FFF7EEFF014600220D
S31500002CD82046FFF7E9FF0D46A8420146F7D1013223
S31500002CE8052AF5D12046FFF7C3FF8842204608D0BB
S31500002CF8FFF7C6FFFFF7BCFF0146204608F070FA4B
S31500002D0838BDFFF7C5FFFFF7B3FF0146204608F0B9
S31500002D1867FA2046FFF7BCFFECE7000010B504F0A1
S31500002D2851FE044604F048FE0022012101FA02F38E
S31500002D38234014D01D4B1E4933F81230062B14D0ED
S31500002D4840F2072293420DD11A4A1B48146884425E
S31500002D5808D14CF23C33538013880B8015E00132BE
S31500002D68112AE3D1124A13800FE0124A50884FF213
S31500002D780F03984216D11388B3F5406F28BF4FF456
S31500002D88C0630B804CF23C335380094B1A8840F2DF
S31500002D9801739A4201BF094A094BD2E90001C3E906
S31500002DA8000110BD4FF4C063EBE700BFE42E03003B
S31500002DB8723500200000002007020FF09400002062
S31500002DC8482D0020014B1888000A704772350020EC
S31500002DD8014B1888704700BF723500202DE9F04F67
S31500002DE84D4DAB6BD5F850B0D5F840A05A074FBF3C
S31500002DF80027D5F84CB0D5F85480D5F83CA05ABF72
S31500002E08464FDFF84091DFF84091454A48BFB8463B
S31500002E1813F0080F434B18BF1A46B7EB08061CBF3A
S31500002E287308642187B01FBF01FB0B33B3FBF6F3AE
S31500002E389BB205933C49CDF800804B46CDE9017A13
S31500002E4808BF0596044600F057FFB3B2CDE90093D4
S31500002E583649059B1FFA8BF2204600F04DFFAB6BF7
S31500002E685B070AD49C3E5E4507D16A6D304B9A4291
S31500002E7803D23049204600F03FFFBA4501D8C24583
S31500002E8804D22D494A46204600F036FF204607F070
S31500002E988DF8D5E91823134337D02849DFF8AC80D5
S31500002EA8DFF8AC90204600F013FF002601272A6EB3
S31500002EB807FA06F3134207D058F8262013781BB1F1
S31500002EC84946204600F004FF0136202EEFD1DFF8F0
S31500002ED87C80DFF87C90002601276A6E07FA06F3E5
S31500002EE8134209D008EB8603D3F8802013781BB168
S31500002EF84946204600F0ECFE01360A2EEDD1204662
S31500002F0807B0BDE8F04F00F0F1BE0D49204607B006
S31500002F18BDE8F04F00F0F0BE00000020E0190020E8
S31500002F281A2F0300132F0300222F0300502F03002C
S31500002F389C000020892F0300B52F0300D32F030020
S31500002F4802300300062F03000B2F0300643803002A
S31500002F5846D402002DE9F8430446FFF739FF40F648
S31500002F68052398420ED8B0F5206F0DD840F20253CB
S31500002F78984217D040F2017398421ED040F201538E
S31500002F8898420AD0BDE8F883A0F602205F4D0328D0
S31500002F981FD8DFE800F0386598B55D49204600F08F
S31500002FA8ABFE11E05B49204600F0A6FE574B5A6C73
S31500002FB85949204600F0A0FE06E0544A5749D2E98E
S31500002FC82523204600F098FE2046BDE8F84306F083
S31500002FD8EDBF5349204600F08FFE95F86C309F07E9
S31500002FE803D55049204600F087FE95F86F305E06F7
S31500002FF803D54D49204600F07FFE95F96F30002B2A
S31500003008E2DA4A49CAE74A49204600F075FE95F8C9
S315000030186830980704D06A6C3F49204600F06CFE79
S3150000302895F96830002B04DA6A6F4249204600F0A9
S3150000303863FEDFF80C81DFF8189100260127AA6ED7
S3150000304807FA06F3134207D058F8262013781BB15F
S315000030584946204600F050FE0136082EEFD1B3E768
S315000030683549204600F048FE2B496A6C204600F098
S3150000307843FE95F86930590703D53049204600F0D4
S315000030883BFE95F96930002B04DA6A6F2949204618
S3150000309800F032FE2A4FDFF8B8800826AB6EF34000
S315000030A8DA0707D557F8262013781BB1414620467C
S315000030B800F022FE0136102EF0D195F86830002B6C
S315000030C882D120496AE720491D4FDFF884802046CF
S315000030D800F012FE6A6C1049204600F00DFE10261C
S315000030E8AB6EF340DB0707D557F8262013781BB1DC
S315000030F84146204600F000FE01361A2EF0D163E75D
S315000031081249204600F0F8FD6A6C51E700000020DD
S315000031181730030054300300843003009D30030049
S31500003128B7300300CF300300093103003C310300F8
S31500003138783103009D310300C1310300D831030003
S31500003148FC3703001E3203004E32030067320300C9
S31500003158B93103002DE9F84F164DDFF86080DFF826
S3150000316860A0DFF860900446002658F8043B2A461B
S3150000317851462046F7B200F0ABFD2A78AB4601353A
S31500003188002AFAD19BF8012092B10B4907F00307F0
S31500003198032F08BF4946204600F09AFD204606F050
S315000031A805FF9BF801300136002BDED1BDE8F88F0C
S315000031B84946F0E70C390300883203000400002072
S315000031C88B32030087D4020000F00CB800F00AB86E
S315000031D800F008B800F006B800F004B800F002B82D
S315000031E800F000B872B61EF0080F09D01EF0040FE2
S315000031F80DD0DFF850E0AEE8FF1F6FF002000CE0DC
S31500003208DFF840E0AEE8FF1F6FF00E0005E0DFF8DC
S3150000321834E0AEE8FF1F6FF006006946EFF3098257
S315000032288EE8070086460848084C854501D3A5451B
S3150000323801D384F30888FFF705FC84F3088828F08F
S3150000324801FD000004000020C0100020E019002045
S31500003258FFF7C6BF7047000037B515467F2D1A46DB
S315000032684BF2346308BF00259942044619D17F22E0
S3150000327841F2020168460823FFF7EEFF28490822B3
S31500003288684629F0A1FB30B908237F2241F2F011E4
S315000032986846FFF7E1FF6B4603CB2060616003B029
S315000032A830BD41F2F01399421DD11E4BD3F8F050B0
S315000032B8D3F8F4000021CBB25AB9002AEFD0E05473
S315000032C80133D9B207294FEA102002F1FF32F4D9A7
S315000032D8E5E76554013104294FEA152502F1FF3265
S315000032E8E9D10B46E9E701F47043B3F5805F0AD1EB
S315000032F8C1F30B0404F17E6402FB054103B0BDE88B
S31500003308304029F071BB01F46043B3F5005FC6D1C4
S31500003318C1F30B0404F17E6404F58044ECE700BFB6
S31500003328603A03000081E00F70B5054616461C4654
S31500003338DBB14BF23463994210D1082C28BF08241C
S315000033487F2241F202012346FFF786FF07492246FC
S31500003358284629F039FB40B941F2F0112346324696
S315000033682846BDE87040FFF777BF70BD603A030096
S315000033782DE9F8431646C20704460F4603D52848E2
S31500003388DD21FFF743FBF30703D52548DE21FFF7C9
S315000033983DFB04F47043B3F5805F21D1C4F30B04FD
S315000033A804F17E641F4A731E23449342254603D9BB
S315000033B81B48E321FFF72AFBDFF8649005EB0608B4
S315000033C8454522D156B372083946204628F0C1FB36
S315000033D820B3BDE8F843124840F20F11FFF716BBB9
S315000033E804F46043B3F5005F07D1C4F30B0404F19A
S315000033F87E6404F580442546DEE70948EA21FFF79E
S3150000340805FB6FF00F050024D6E715F8013BFF2BE7
S31500003418D6D0F4214846FFF7F9FAD1E7BDE8F88394
S31500003428D8390300FF07E00FFFF7CEBE1FB51548D2
S31500003438154C012102F042FD01221146104602F008
S31500003448BFFF0421072004F0A7FA104A1068516844
S3150000345801AB03C3906818600D238DF80C3001A9E1
S31500003468032320468DF80D3004F0D5FC084B0422C2
S315000034780221C3F8802161621A60A36A0B43A36222
S3150000348804B010BD30053E0000200540683A030030
S3150000349800E100E0014804F0B2BC00BF002005408E
S315000034A8A52803D10248002104F093BC704700BF49
S315000034B800200540024B186800F00100704700BF65
S315000034C800200540024A9368002BFCD1704700BFD4
S315000034D80020054000207047002070477047000014
S315000034E813B572B603F019F9614B62495B698B60D3
S315000034F800230B76E0204B768B764023C876087738
S3150000350848778877CB775C4B8022602481F8202027
S3150000351881F8210081F8220081F8232083F800230E
S3150000352883F80143202483F8024383F8034383F88E
S31500003538042383F8052383F8062383F8072383F8EF
S31500003548082383F8092383F80A2383F80B2383F8CF
S315000035580C2383F80D2383F80E2383F80F2383F8AF
S31500003568102383F8112383F8122383F8132383F88F
S31500003578142383F8152383F8162383F8172383F86F
S31500003588182383F8192383F81A2383F81B2383F84F
S315000035981C2383F81D2383F81E2383F81F2383F82F
S315000035A8202383F8212383F8222383F8234383F8EF
S315000035B8242383F8252383F8262383F8272383F8EF
S315000035C8282383F82903CB6823F4E0631B041B0C28
S315000035D843F0BF6343F40133CB604B6943F4007394
S315000035E84B614B6943F010034B614FF4E0234B6288
S315000035F805F0A0F8FFF792FBEFF308831F4A043B98
S315000036084FF0CD31934230D21D4A1E4892B2002166
S3150000361829F012FA62B61C4B01245C641A6842F45B
S3150000362880721A6003F54053D3F8A42142F4F84295
S31500003638C3F8A4211C6104F0CFFF01F039FA002376
S3150000364868460093ADF804308DF8034003F0E0FABD
S3150000365800F0C4F828F048FB00F0CEF822F074FE1B
S315000036680A4805F043FC02B010BD43F80419C9E73F
S315000036780000000000ED00E000E100E080100020FE
S31500003688B00F0000A000002000000E40B83D030067
S3150000369840F2016028F0D6BAFEF73CBF08B5002113
S315000036A80B20FEF735FFBDE80840FEF734BF08B12A
S315000036B8FDF721B9FDF71EB9032000F08BB900000C
S315000036C810B5FFF77FFB0446FFF782FB10F0FF00FB
S315000036D805D1012C23D164F07F04E4B215E0072C50
S315000036E8F9D801A353F824F013370000DF36000099
S315000036F81137000017370000173700001B37000086
S315000037081F370000233700000924204610BD022475
S31500003718FBE70324F9E70B24F7E70624F5E7044655
S31500003728F3E700BF38B50D46044688BB284B4A1E4A
S31500003738186050425041013D06F0C2FC032D46D8A0
S31500003748DFE805F002131E2001210846FDF7D4F82C
S31500003758FFF7B0FE1F4B187010B1A520FFF7A0FEAB
S31500003768BDE83840012006F0ABBC02210120FDF778
S31500003778C3F8FFF79FFE50B3BDE83840FFF7A2BE77
S315000037880421F3E705210120BDE83840FDF7B4B868
S31500003798104B1B781BB11048012104F01AFB631E5D
S315000037A858425841013C06F08CFC032C0FD8DFE840
S315000037B804F002080A0C012006F083FC012100200F
S315000037C8E2E70221FBE70421F9E70521F7E738BD1F
S315000037D8CC2F0020BE3A002000200540044AD2F82B
S315000037E81C341B0C1B04C2F82434024A13607047AD
S315000037F800A000408C28002008B505F0ADF818B1E7
S3150000380804489221FFF702F9BDE808400249034837
S3150000381805F056B97A3A0300BC1B00208C2A002012
S31500003828134A1449D2F82834D2F81C241340124AF1
S315000038389BB21360D1F80001400502D5086840051F
S3150000384806D4D1F80001400305D50968490302D515
S3150000385843F480331360074BD3F80011002906DAC6
S315000038681B68002BBEBF136843F400331360704710
S3150000387800A0004000E100E0CC2F0020012838B568
S3150000388804460BD0831E012B07D9042824D005280B
S3150000389801D103F02DF9002400E0022402F036FFDE
S315000038A801210546204605F087F8284602F032FF32
S315000038B802F028FF02F035FF05F028F902F024FF90
S315000038C802F024FF00210546204605F075F8284633
S315000038D8BDE8384002F01EBF0324DFE7FFF7CEBF7E
S315000038E8232910B40C4607D80B49097889B1E1B2E7
S315000038F85DF8044B0CF052B9FF2903D95DF8044B67
S31500003908FFF712BD05485DF8044B40F29511FFF725
S315000039187DB85DF8044B7047B23A0020F73A0300C9
S3150000392813B5104C01230020237006F093FD40B117
S31500003938002006F08FFD20B100232370492002B035
S3150000394810BD02230DF106007F220021FFF7C8FFF4
S31500003958BDF806300020B3F57F7F1CBF2070072016
S31500003968EDE700BFB23A00202328F7B504460F4614
S31500003978154617D8144A127892B1144E327832B1D5
S31500003988134801934FF4D071FFF740F8019B0122C9
S31500003998327029463A46E0B20CF042F900233370F9
S315000039A803B0F0BDFF2806D91A46294603B0BDE87C
S315000039B8F040FFF7DDBC06484FF4D67103B0BDE80A
S315000039C8F040FFF723B800BFB23A0020953A00202E
S315000039D8F73A0300024B1B780BB10CF013BA704789
S315000039E8B23A0020104430B5054602B930BD01F0A0
S315000039F80F030A2B34BF302437242344013A05F831
S31500003A08013D0909D2B2F0E7F0B519B3002820DA6A
S31500003A182D23B0F1004F137000D04042012119E068
S31500003A28801B8642ECB205F10105F9D914B9BCF13F
S31500003A38000F05D04D1C303454544FF0010CE9B238
S31500003A48013B13F0FF0309D130305054481CC0B273
S31500003A58F0BD0021034F09234FF0000C57F8046B03
S31500003A680025DEE7703B03002DE9F04F97B04FF0D5
S31500003A78000B04AC8046894615469A465E4627469C
S31500003A88297859B9E41BE4B2224639464846C04764
S31500003A98002840F0AD803444E0B2AAE0252916D0CB
S31500003AA8BBF1000F17D1204600F8011B044614ABE2
S31500003AB89C42C0F0E280E41BE4B2224639464846FE
S31500003AC8C047002840F094802644F6B2D4E0BBF103
S31500003AD8000F00D101352978782906D8612907D839
S31500003AE825295ED03AD80029CCD04FF0000BDEE766
S31500003AF8A1F16202162AF8D801A353F822F000BFF2
S31500003B08B53B00003B3C0000873C0000F33A000050
S31500003B18F33A0000F33A0000F33A0000F33A0000E3
S31500003B28F33A0000F33A0000873C0000F33A00003D
S31500003B38F33A0000F33A00004B3C0000F33A000069
S31500003B48F33A00004B3C0000F33A0000873C0000C3
S31500003B58F33A0000F33A00009B3B0000392916D8D7
S31500003B682F29C2D96A7802F0DF02582A40F0AD80C0
S31500003B78322905F1010B40F09C805AF8041B0422F7
S31500003B8889B22046FFF72EFF5D460446ADE7582961
S31500003B98ABD15AF8041B0222C9B22046FFF722FF0E
S31500003BA802E0204600F8011B04469EE7DAF80030DA
S31500003BB80293DAF804300193013B4FF0000B0393AC
S31500003BC8019B9B4502D10AF1080A8EE7029B204613
S31500003BD813F80B100222FFF705FF14AB98420446B0
S31500003BE80DD3C41BE4B2224639464846C04718B12D
S31500003BF8002017B0BDE8F08F2644F6B23C46039B7A
S31500003C085B4582BF2046202200F8012B14AB88BFF3
S31500003C1804469C420AD3E41BE4B222463946484687
S31500003C28C0470028E4D12644F6B23C460BF1010B06
S31500003C38C6E75346204653F8042B00F8012B9A464C
S31500003C48B2E7E41BE4B22246394648465AF804BBB2
S31500003C58C0470028CCD12644F6B2C4B201301BF8BE
S31500003C680420002AF9D1224659464846C04700286A
S31500003C78BED12644F6B283463C46013500E76C2998
S31500003C88DAF800000AF1040B0ED16B78752B14BF15
S31500003C980121002101D0642B00D101352246FFF70E
S31500003CA8B3FEDA46044420E775290CBF002101213A
S31500003CB8F4E7342909D15AF8045B0422290C204672
S31500003CC8FFF790FE0422A9B25CE74FF0010BEEE67F
S31500003CD80EB403B503AA52F8041B019206F060FA63
S31500003CE8C0B202B05DF804EB03B070470149FFF7B4
S31500003CF8EFBF00BF87D402000EB433B505AA054648
S31500003D0852F8041B019206F04BFA04462846FFF7C0
S31500003D18EDFFE0B202B0BDE8304003B0704708B529
S31500003D2806F03EFAC0B208BD2DE9F04F9A46554B4B
S31500003D3885B01B78DDF83C909DF844B0DDF85080DE
S31500003D4806460F461546002B00F08B80072A00F220
S31500003D588A800E9B002B00F08680B9F1000F00F0D8
S31500003D688280129BB3F5006F7DDC012802D1109B7F
S31500003D78002B78D0444B03EB05131B7B002B74D028
S31500003D88424C10220021684628F056FE04EB4514E2
S31500003D981022002F57D13946204628F04DFE43F20F
S31500003DA810036380BBF1000F03D1E37843F00303EC
S31500003DB8E370364A0E9BCDF800A002EB451CCCE911
S31500003DC80193129B013BC3F30A009DF84C3069012D
S31500003DD803F003039B0643EA001E53582C48184079
S31500003DE84EEA0003012E535041D11323CCF80C3070
S31500003DF89CE80F000CF1100E8EE80F00DCF81C2072
S31500003E08109BCCF814306FF0030161F39F02012F69
S31500003E18CCF81C2003D1CCF81890CCF804301A4AF8
S31500003E28290102EB051342F801800027159A5A600A
S31500003E3828469F605E732246694603F03FFC384673
S31500003E4805B0BDE8F08F0021204628F0F5FD4FF4B7
S31500003E5844736380BBF1000FABD1E37843F03003C2
S31500003E68A6E70C48ECE70C48EAE70C48E8E7B8F19F
S31500003E78000FD4D19CF8023068F304138CF8023092
S31500003E88CDE700BF173A00208C2600208C2700209B
S31500003E980F80FFF3028000F0018000F0078000F039
S31500003EA838B5124B1B780546DBB1E0B102F03DFC94
S31500003EB80F4A00231146147B54B92B601A0101EBF3
S31500003EC8031301258C501D7302F035FC204638BDBE
S31500003ED80133082B02F11002EDD102F02CFC054843
S31500003EE8F5E70548F3E70548F1E700BF173A00206C
S31500003EF88C260020048000F0028000F0018000F08B
S31500003F0813B5164B1868019000238DF8043002F09B
S31500003F180CFC134B1C7824B102F00DFC114802B0BE
S31500003F2810BD01221A7002F006FC0F4B1C731C7799
S31500003F3883F82C4083F83C4083F84C4083F85C4077
S31500003F4883F86C4083F87C4004230DEB03008DF85E
S31500003F58073003F089FB2046E1E700BF943B0300E6
S31500003F68173A0020038000F08C26002010B588B090
S31500003F780E9C07940D9C06949DF8304005940B9C66
S31500003F8804949DF8284003940024CDE90134009256
S31500003F980B46024621462046FFF7C6FE08B010BD6E
S31500003FA810B588B00E9C07940D9C06949DF8304079
S31500003FB805940B9C04949DF8284003940024CDE9AD
S31500003FC8013400920B46024601212046FFF7ACFE5B
S31500003FD808B010BD0A4A127808B55AB107280BD896
S31500003FE8084A02EB00131B7B43B1002103F032FBA6
S31500003FF8002008BD0448FCE70448FAE70448F8E747
S31500004008173A00208C260020028000F0018000F07C
S31500004018078000F00A4A127808B55AB107280BD863
S31500004028084A02EB00131B7B43B1012103F012FB84
S31500004038002008BD0448FCE70448FAE70448F8E706
S31500004048173A00208C260020028000F0018000F03C
S31500004058078000F00D4B1B7893B1072812D889B159
S315000040680B4B03EB00131B7B73B10A4B1A6A012334
S3150000407803FA00F010401ABF00200B700870704752
S31500004088054870470548704705487047173A0020A5
S315000040988C26002000200E40028000F0018000F0EF
S315000040A8078000F02DE9F843DFF86480D8F86070DF
S315000040B8D8F86C301F4000D5FEE7144CDFF8549052
S315000040C801260025374217D02368C8F868609BB1D7
S315000040D8A16862680131A16028469847637B012B75
S315000040E80AD148B909EB45131A7B60F341021A73E2
S315000040F81A7F60F341021A770135082D4FEA460602
S3150000410804F11004DED1BDE8F88300BF8C26002038
S3150000411800200E408C27002070B5094E0446012564
S3150000412804B970BD94FAA4F0B0FA80F005FA00F369
S3150000413824EA030456F82030002BF1D09847EFE71D
S31500004148982A002008B5122002F006FB28B1084B71
S315000041584FF48022C3F880211A600A2002F0FCFA84
S3150000416828B1034B4FF48062C3F880211A6008BD5A
S3150000417800E100E038B504460D4602F0D6FA034BD6
S3150000418843F82450BDE8384002F0D5BA982A0020F2
S31500004198054BD3F82804D3F81C24104000F05530FA
S315000041A8C3F82404FFF7B8BF00A00040054BD3F8B6
S315000041B82804D3F81C24104000F0AA30C3F82404BD
S315000041C8FFF7AABF00A0004000230B70704700004D
S315000041D838B500F079FB094B094A196839B11368F3
S315000041E84C69C51AAC4204D323441B1A4B611060B0
S315000041F803E0001B002310604B6138BDB42F00207C
S31500004208402C0020C38870B504460D463BB904F01F
S3150000421831FC8542064602D204F046FC35460F4973
S3150000422865610B68ABB90C60A36011E0AD1A9A68BA
S31500004238656118462AB113465A69AA42F6D950B199
S315000042481A4684601346A36013B15969491B59611C
S3150000425870BD0020F0E70C60F5E700BFB42F002022
S3150000426838B50F4B0F4D1C682B685B6902201C4440
S3150000427800F058FB204600F02DFB0B492A68002366
S315000042880B70D088800702D501230B7038BD926861
S31500004298002AFBD050690344012BF2D9F6E700BF88
S315000042A8402C0020B42F00203D3A002070B59DF820
S315000042B814500571002516468560049ABDF81850F5
S315000042C8C580C0E90336044602600D4629B9416136
S315000042D80BB11146984796B1354602F026FA0646BE
S315000042E8FFF776FF29462046FFF78CFF054B1B682C
S315000042F8A34201D1FFF7B4FF304602F01CFA0020B2
S3150000430870BD00BFB42F00200C490B6800227BB19A
S3150000431883420AD183687AB1936083681BB15A696C
S3150000432841690A445A61002070471A469B68EEE7BD
S315000043380028EFD0022070470B60EEE7B42F00206C
S3150000434870B5154E02F0F1F934780546FCB9134BF1
S315000043581C60134B1C60134B1C8000F071FA012083
S3150000436800F0E0FA00F02CFB0F4B0246186020B96B
S31500004378284602F0E0F9232070BD23460B4840F298
S31500004388E73128F067F90A4B18600123337028468D
S3150000439802F0D1F90020EFE71F3A0020B42F0020E1
S315000043A8402C002044340020B02F002018FCFFFFCA
S315000043B84C2C00202DE9F0410546F8B102F0B5F97C
S315000043C80F4F0646FFF704FF2846D7F80080FFF789
S315000043D89BFF044628B1304602F0ADF92046BDE8F9
S315000043E8F081A8453B6803D123B1FFF739FFF2E70F
S315000043F8002BF0D1022000F0A3FAECE72224EDE727
S31500004408B42F002070B586B0154605911E460446A1
S3150000441880B1FFF7CFFFBDF82C3002939DF8283006
S315000044280599CDE9006300222B462046FFF73EFF9B
S3150000443806B070BD2220FBE738B50C46054698B194
S3150000444891B100230B7002F070F9084B1B6801212B
S315000044580BB122781AB102F06EF9002038BDAB42D2
S3150000446814BF9B682170F3E72220F7E7B42F0020DA
S31500004478F0B587B01F4600230D4616468DF817304F
S315000044880446A0B10DF11701FFF7D6FF9DF81720D6
S315000044987AB9BDF8343002939DF830302946CDE913
S315000044A8007320463346FFF701FF07B0F0BD222010
S315000044B8FBE70320F9E70000F8B50C460546C8B146
S315000044C8C1B102F032F90646FFF782FE6B69236036
S315000044D8134B1B68AB420FD023B9304602F02BF9B9
S315000044E803201CE0596922689B680A442260F1E7A8
S315000044F800230FE0222012E00A4D276800F0E4F9B5
S315000045082B68C01A8742F3D900F0DEF92B682268B7
S3150000451813441B1A3046236002F00DF90020F8BD3B
S31500004528B42F0020402C00202DE9F041074688468C
S3150000453802F0FBF8134B1C680546002624B92846EA
S3150000454802F0F9F81B2016E063691E44E388BB42B3
S3150000455815D10D4C00F0B8F92368C01AB0420CD238
S3150000456800F0B2F922683244121A2846C8F8002028
S3150000457802F0E1F80020BDE8F0810022F5E7A46822
S31500004588DCE700BFB42F0020402C0020014B187830
S31500004598704700BF3D3A002038B502F0C6F8054618
S315000045A800F092F90446284602F0C5F8204638BDC0
S315000045B870B502F0BAF8064600F086F9084B1D8871
S315000045C804460120ADB200F0D3F918B100F07CF929
S315000045D801350446304602F0AEF82046294670BD3D
S315000045E844340020014B1868704700BFB02F0020E4
S315000045F8044B1B6858434FF47A73B0FBF3F0013051
S31500004608704700BFB02F002000B58BB001238DF88E
S315000046180F30FFF7EDFF0023CDE900330146074AC7
S315000046280DF10F0304A8FFF723FF18B99DF80F3003
S31500004638002BFBD10BB05DF804FB00BFD141000095
S315000046480A4B1B68834210B50C460CD3084B1968F5
S315000046584FF47A720023A0FB010127F0FBFF01301B
S315000046682060002010BD2120FCE700BF4C2C002054
S31500004678B02F00200F4B1A6810B59AB1531E4FF48D
S315000046887A711342A0FB01010ED1B2FA82F2C2F18D
S315000046981F04531CE040D24301FA03F3184321FADE
S315000046A802F20243104610BD002327F0D3FF02464C
S315000046B8F8E700BFB02F0020164B8342164B8B41FC
S315000046C870B5154624D3154B1A680AB34FF47A7693
S315000046D8541EA0FB0603144006FB013111D1B2FAA1
S315000046E882F3C3F11F025E1C01FA06F6DB43D040D3
S315000046F821FA03F330431843D140C5E900012046A7
S3150000470870BD002327F0A6FF0024C5E90001F6E7DF
S315000047182124F4E7EFA7C64B37894100B02F0020C4
S31500004728C2072DE9F84F04460BD5414A13880133D1
S315000047389BB21380FFF74CFD3E4B1B680BB1FFF78E
S315000047488FFDA30771D5DFF8F49000F0BDF8D9F80E
S3150000475800700646C71B01F0E8FF4FF00008054643
S315000047684246C346334B1C6814B16369BB4219D928
S31500004778314B0021B8F1010F197005D122B1D28849
S31500004788022A08BF83F80080002C4AD06369C9F85A
S315000047980060DB1B6361FFF763FD2846BDE8F84F41
S315000047A801F0C9BFC9F8006023463A4659699142E3
S315000047B809D8187994F804C0844588BF1C469B68B4
S315000047C8521A002BF2D1284601F0B5FF6569C4F8E4
S315000047D814B001F0AAFF82462046FFF795FD504621
S315000047E801F0A9FF23694BB101F09FFF21698246B9
S315000047F82046FFF707FD504601F09DFFE36813B119
S3150000480821682046984700F05FF835447F1B8246AA
S31500004818074401F08AFF08F1010805462246564674
S31500004828A0E7022000F08CF8B7E7BDE8F88F00BFD4
S3150000483844340020B42F0020A03A0020402C002049
S3150000484810B51D4B86B01868596803AA03C2197AB1
S31500004858D3F8090011700190B3F80D201748DB7BD7
S31500004868ADF8082001218DF80A30002401F026FB56
S3150000487803A88DF80C408DF8104003F0F1F801A953
S3150000488801208DF8044003F0CBF80D4A536A23F44F
S31500004898FF6323F00703536240F2FF73136201209C
S315000048A8946003F0D7F8074B4FF00042C3F8802115
S315000048B81A6006B010BD00BF983B0300A00914009B
S315000048C80020044000E100E0014B9868704700BFF3
S315000048D800200440114A9368516D9269520704D426
S315000048E8CA1A032A01D899420DD1C21A022A98BFB8
S315000048F8D81C0A4BB0F1FF3F38BF013858655A6AD1
S3150000490842F004025A62064A137833B103490B6D22
S3150000491843F002030B650023137070470020044020
S31500004928632000208207054A00F00103516A48BF48
S3150000493843F004030B435362704700BF0020044052
S31500004948820700F0010309D5074A012111700749BA
S315000049580A6D22F0030243F004030A6503494A6A12
S3150000496822EA03034B6270476320002000200440BC
S31500004978064B01289B6904D0022805D1C3F38000A1
S31500004988704703F00100704700207047002004407C
S3150000499810B501F0CAFE094A93690446590703F09F
S315000049A8010003F0070348BF40F002001362FFF757
S315000049B8B7FE2046BDE8104001F0BDBE0020044009
S315000049C8014801F0B9BB00BFA0091400044B4FF021
S315000049D84042DA621A6B22F040421A63704700BFFF
S315000049E800300E40F0B52D4C2D4A236800210846AC
S315000049F8156845B11D68002D41D01D791679AE425E
S31500004A0884BF134601210130052802F10802EFD1BF
S31500004A1801B123602348244A036800210D4616681D
S31500004A2846B11E68002E2DD01E791779B7423CBFB5
S31500004A38134601210135052D02F10802EFD101B116
S31500004A4803602168194B0A68FAB1DA69097922F014
S31500004A58FF020A43DA611A6B42F0804201681A6360
S31500004A680A68124BAAB1DA69097922F47F4242EA46
S31500004A780122DA611A6B42F000421A63F0BD13464E
S31500004A880121C0E713460121D4E71A6B22F08042C0
S31500004A98E4E71A6B22F00042EFE700BF202C002063
S31500004AA8602F0020482C0020882F002000300E4060
S31500004AB808B5184B184801221A700021282227F039
S31500004AC8BBFF28221548002127F0B6FF144A154BCC
S31500004AD81360154A1360154AD2F8B030D2F804218B
S31500004AE8C3F30743FF2B02D0D2B2FF2A01D190228B
S31500004AF8192303EB830302EBD3030D4A1360FFF775
S31500004B0865FF0C4B0122C3F880211A60FFF76AFF84
S31500004B18002008BDAA370020602F0020882F00201B
S31500004B28202C0020A82C0020482C00200081E00F13
S31500004B388826002000E100E008B502F0B9FA9FEDEA
S31500004B48137A07EE900AF4EEC77AF1EE10FA19D442
S31500004B589FED0F7AF4EE477AF1EE10FAC8BFF0EE41
S31500004B68477A17EE900A27F085FC0A4B002227F0B1
S31500004B7823FB094B002227F01FFB27F0D3FC8038C4
S31500004B8840B208BDF0EE477AEBE700BF000000C36D
S31500004B980000FE420000E03F00006040144A38B5BD
S31500004BA8136B526A134012D5124B1B681D6835B138
S31500004BB800241C605C60FFF7BFFF2146A8470C4B2A
S31500004BC84FF00042DA62BDE83840FFF70BBF5B00E2
S31500004BD8F9D5094B1B681C6834B100221A605A6063
S31500004BE8FFF7AAFF0121A047014B4FF08042E9E7F2
S31500004BF800300E40482C0020202C0020FFF7CEBFA6
S31500004C0838B141B1013AB2F5006F044838BF002007
S31500004C187047034870470148704700BF037000F0AB
S31500004C28027000F038B504460D4601F07EFDA388F3
S31500004C389BB223B92B6001F07EFD064838BD638818
S31500004C4814229BB202FB034408342C6001F073FD66
S31500004C580020F3E70B7000F0F8B5044616460F4639
S31500004C6801F063FDA388E2889BB29A42054605D8FF
S31500004C780023336001F05FFD1748F8BD238814222E
S31500004C889BB202FB034308333A4607F1100C17465A
S31500004C9803CF6745186059603A4603F10803F6D111
S31500004CA838681860238814229BB202FB0343083332
S31500004CB833602388E2889BB20133B3FBF2F102FB2F
S31500004CC811339BB22380A38801339BB22846A38065
S31500004CD801F031FD0020D0E70A7000F010B5034658
S31500004CE8006893F83230012B0CD102F051FD0446CE
S31500004CF830B1FFF777FC24235843B0FBF4F40134B2
S31500004D08204610BD02F0EAFFF1E7000090F83130C6
S31500004D18022B0BD1437E30225343054A1A44437F64
S31500004D2803EBC2039B001868C0B2704700207047A7
S31500004D381CA0100213B51D4A002352F8044B617FCC
S31500004D4881420ED00133042BF7D102B010BD0028E2
S31500004D58FBD19DF80730002BF7D06068FFF73AF9CA
S31500004D68F3E794F83130022BEFD12046FFF7CEFF58
S31500004D78637D2075022BE8D194F82E3003F0FF02EC
S31500004D88002BE2D160688DF807200DF10701FFF7C7
S31500004D9861F9237D1BB194F82F30002BD7D000235F
S31500004DA8606884F82F30FFF735F9CEE7B82F002072
S31500004DB890F8323053B903680422DA601A6990070A
S31500004DC8FCD55A6F42F002025A677047012B0CD184
S31500004DD803685A6C9107FCD404225A609A689207B1
S31500004DE8FCD55A6D42F002025A65704790F8323087
S31500004DF853B903680122DA601A69D007FCD55A6FDD
S31500004E0842F001025A677047012B0CD103685A6CAD
S31500004E189107FCD401225A609A68D207FCD55A6DCC
S31500004E2842F001025A65704790F832303BB9036880
S31500004E385A6F22F001025A670222DA607047012B84
S31500004E4809D103685A6C9207FCD45A6D22F0010204
S31500004E585A6502225A6070471049114A0B7830B5D4
S31500004E682BB9C2E90033C2E9023301230B700C4C9B
S31500004E780023214651F8045B854208D00133042BF0
S31500004E88F8D1002154F8043B1BB942F82100002050
S31500004E9803E001310429F5D1024830BDB43A0020B7
S31500004EA8B82F0020027000F010B50446FFF728F866
S31500004EB80021201DFEF7F4FF014620B904F1080081
S31500004EC8FEF7EEFF00B1014810BD00BF0E7000F0FE
S31500004ED870B5054601F029FC6C6B013C06466C630F
S31500004EE84CB901F013FC21460546012003F064FD88
S31500004EF8284601F00FFC3046BDE8704001F01BBCA7
S31500004F0813B591F832200B68012A0C460BD19B6821
S31500004F1813F0080F20460AD0FFF7DAFF022384F8B9
S31500004F28383002B010BD1B6913F0200FF2E7FFF707
S31500004F38D5FE0023CDE900330146034A234604F192
S31500004F483C00FFF795FAECE7094F000070B50446F8
S31500004F5801F0EBFB636B05464BB901F0D7FB01216A
S31500004F680646084603F028FD304601F0D3FB636B7E
S31500004F78013363632846BDE8704001F0DCBB0000DE
S31500004F887FB5012380F82C3090F8323093B90C4A5B
S31500004F98036803920022049002924A680192012251
S31500004FA800920A68016980681C33FEF7F9FF07B0AA
S31500004FB85DF804FB012BEAD0002380F82C30F6E7D5
S31500004FC8615800002DE9F041012380F82D3090F852
S31500004FD8323088B004460E466BBB0568343501F09E
S31500004FE8A4FB04F13C0807460DF11F014046FFF7F4
S31500004FF823FA40B99DF81F302BB14046FFF7DAF97E
S315000050082046FFF765FF3846012701F094FB204646
S3150000501884F83870FFF79AFF0E4B03930023029328
S315000050287368E16860680494CDE900732A463368BA
S31500005038FEF79CFF0BE0012B06D105682B6843F4AD
S31500005048005345F8283BCAE7002380F82D3008B0FE
S31500005058BDE8F081A950000038B504460D4601F0B8
S3150000506864FBA3889BB223B92B60BDE8384001F0E6
S3150000507862BB638814229BB202FB034308332B608E
S315000050886388E2889BB20133B3FBF2F102FB11336A
S315000050989BB26380A388013B9BB2A380E5E700002F
S315000050A8F0B585B0906A03A91446FFF7BBFD06461E
S315000050B82046FFF713FE002501462346CDE9005595
S315000050C81B4A04F13C00FFF7D3F91A4B9E421FD046
S315000050D8039B1D619D6001F028FB039AD76806466D
S315000050E827B1D2E9002329462046B847A06A03A972
S315000050F8FFF7B2FFA06A83889BB263B103A9FFF7E3
S3150000510891FD03992046FFF75DFF304601F013FB3A
S31500005118012005B0F0BD84F82D3094F83230012B0B
S3150000512801BF2268136823F400531360EDE700BF3C
S31500005138094F00000B7000F01FB504460B46C07DF2
S31500005148E17E002B33D00123042202F047F8012325
S31500005158217F207E022202F041F894F83130022B9A
S3150000516816D1617F607E0023012202F037F8002302
S315000051780422A17FA07E02F031F80123627F019309
S31500005188607E0093114601F0E3FF002004B010BDD5
S31500005198032BFAD100230122617F607E02F01EF8FC
S315000051A800230422A17FA07E02F018F8EDE71A4634
S315000051B8039302F013F8039B217F207E1A4602F020
S315000051C80DF894F83120039B022A0FD11A46617F05
S315000051D8607E02F003F8039BA17FA07E1A4601F0C9
S315000051E8FDFF039B0193627F0123C9E7032ACCD104
S315000051F81A46617F607E039301F0F0FF039B1A460F
S31500005208D0E72DE9F04104469046FFF7F9FC0F4632
S31500005218054600285CD1092001F0ACFA0646A26AC8
S3150000522893889BB213B194F82E3033B394F8323086
S3150000523843BB23681E6906F002061EB92046FFF71F
S31500005248B7FD0026012384F8303094F832301BBBB2
S31500005258B844474520681AD103699A06FCD5002E3A
S3150000526836D194F8323033BB23685A6F22F00202E3
S315000052785A670822DA6035462AE0002ED0D0FEF7B3
S3150000528811FFCCE7012BD9D123689E68D3E717F81D
S31500005298011B02F099FDDCE7012BE0D1B844B845C3
S315000052A8206803D183681B07FCD5D8E717F8011BCC
S315000052B802F082FAF3E7012BDDD123685D6C15F065
S315000052C80205FBD15A6D22F002025A6508225A607D
S315000052D82846BDE8F081000010B5044680B190F874
S315000052E82E302BB9FFF712FD10B96068FEF772FE73
S315000052F894F82E300133DBB284F82E30002010BD2E
S315000053080048FCE7027000F010B50446A0B190F81A
S315000053182E309BB190F82E30012B05D1FFF7F6FC05
S3150000532810B96068FEF776FE94F82E30013BDBB2C2
S3150000533884F82E30002010BD0148FCE70148FAE742
S31500005348027000F0057000F037B590F83150022D64
S31500005358044618D1A37FA17E407D01229A403023BE
S315000053685943134B0B4410B903F1806303E001283A
S3150000537805D103F1C0631A60002003B030BD217D5A
S315000053880029F6D1F0E7012DF6D1037D73B9112373
S315000053988DF80730FFF7A0FF2A460DF107012046D2
S315000053A8FFF72FFF2046FFF7AFFFE5E71323EFE7E9
S315000053B80CA00040F0B5094F04460D460FCF89B042
S315000053C801AE0FC697E8070086E80700002C00F034
S315000053D836823DB9024E304609B0F0BDA83B0300FF
S315000053E8037000F054220021204627F025FB2046B2
S315000053F8FFF732FD06460028EDD12B7C84F83130C4
S3150000540801222B6884F83820B74A2360934284F82F
S31500005418320040F08A81B54B2362B54BE3604FF406
S3150000542840232361D5E9062300266262168056804A
S31500005438968084F82C60A3621E805E809E806B68CE
S3150000544803936B8984F82D6084F82F60ADF81430C7
S31500005458AB89ADF81230AB7BA6488DF81030012128
S31500005468EB7B8DF8163005278DF8117000F026FDB8
S31500005478A148012100F022FD206A012100F01EFD4D
S3150000548828688DF8046001A902F066FC28686B7A22
S31500005498816F2A7ADFF850C221F4F85121F01F01F2
S315000054A8194341EA02218167032141672068604563
S315000054B840F04681BA4216D9901F042840F25C8112
S315000054C8A2F10B00B84240F25981A2F11100062858
S315000054D840F25681A2F11801062940F253811F2A8B
S315000054E814BFFF263E46042BE67540F24D81591F30
S315000054F8042940F24B81A3F10A01052940F24881AB
S31500005508A3F11001062940F24581A3F117010729E5
S3150000551840F24281B3F11F0118BF4FF0FF31C9B203
S315000055282176002A58D0012A56D0022A54D0032AB6
S3150000553852D0042A50D0052A4ED0062A00F03681C9
S31500005548072A00F03581082A00F03481092A00F07C
